{
  "_format": "hh-sol-artifact-1",
  "contractName": "SocialMedia",
  "sourceName": "contracts/SocialMedia.sol",
  "abi": [
    {
      "inputs": [],
      "stateMutability": "nonpayable",
      "type": "constructor"
    },
    {
      "anonymous": false,
      "inputs": [
        {
          "indexed": false,
          "internalType": "uint256",
          "name": "id",
          "type": "uint256"
        },
        {
          "indexed": false,
          "internalType": "address",
          "name": "creator",
          "type": "address"
        },
        {
          "indexed": false,
          "internalType": "string",
          "name": "contentURI",
          "type": "string"
        },
        {
          "indexed": false,
          "internalType": "string",
          "name": "description",
          "type": "string"
        }
      ],
      "name": "ContentCreated",
      "type": "event"
    },
    {
      "anonymous": false,
      "inputs": [
        {
          "indexed": false,
          "internalType": "uint256",
          "name": "id",
          "type": "uint256"
        }
      ],
      "name": "ContentDeleted",
      "type": "event"
    },
    {
      "inputs": [],
      "name": "admin",
      "outputs": [
        {
          "internalType": "address",
          "name": "",
          "type": "address"
        }
      ],
      "stateMutability": "view",
      "type": "function"
    },
    {
      "inputs": [
        {
          "internalType": "uint256",
          "name": "contentId",
          "type": "uint256"
        },
        {
          "internalType": "string",
          "name": "comment",
          "type": "string"
        }
      ],
      "name": "commentOnContent",
      "outputs": [],
      "stateMutability": "nonpayable",
      "type": "function"
    },
    {
      "inputs": [
        {
          "internalType": "uint256",
          "name": "",
          "type": "uint256"
        }
      ],
      "name": "content",
      "outputs": [
        {
          "internalType": "uint256",
          "name": "id",
          "type": "uint256"
        },
        {
          "internalType": "address",
          "name": "creator",
          "type": "address"
        },
        {
          "internalType": "string",
          "name": "contentURI",
          "type": "string"
        },
        {
          "internalType": "string",
          "name": "description",
          "type": "string"
        },
        {
          "internalType": "uint256",
          "name": "timestamp",
          "type": "uint256"
        },
        {
          "internalType": "uint256",
          "name": "commentsCount",
          "type": "uint256"
        }
      ],
      "stateMutability": "view",
      "type": "function"
    },
    {
      "inputs": [],
      "name": "contentCount",
      "outputs": [
        {
          "internalType": "uint256",
          "name": "",
          "type": "uint256"
        }
      ],
      "stateMutability": "view",
      "type": "function"
    },
    {
      "inputs": [
        {
          "internalType": "string",
          "name": "contentURI",
          "type": "string"
        },
        {
          "internalType": "string",
          "name": "description",
          "type": "string"
        }
      ],
      "name": "createContent",
      "outputs": [],
      "stateMutability": "nonpayable",
      "type": "function"
    },
    {
      "inputs": [
        {
          "internalType": "string",
          "name": "name",
          "type": "string"
        }
      ],
      "name": "createGroup",
      "outputs": [],
      "stateMutability": "nonpayable",
      "type": "function"
    },
    {
      "inputs": [
        {
          "internalType": "uint256",
          "name": "id",
          "type": "uint256"
        }
      ],
      "name": "deleteContent",
      "outputs": [],
      "stateMutability": "nonpayable",
      "type": "function"
    },
    {
      "inputs": [
        {
          "internalType": "uint256",
          "name": "contentId",
          "type": "uint256"
        }
      ],
      "name": "getComments",
      "outputs": [
        {
          "internalType": "string[]",
          "name": "",
          "type": "string[]"
        }
      ],
      "stateMutability": "view",
      "type": "function"
    },
    {
      "inputs": [
        {
          "internalType": "uint256",
          "name": "id",
          "type": "uint256"
        }
      ],
      "name": "getContent",
      "outputs": [
        {
          "internalType": "uint256",
          "name": "",
          "type": "uint256"
        },
        {
          "internalType": "address",
          "name": "",
          "type": "address"
        },
        {
          "internalType": "string",
          "name": "",
          "type": "string"
        },
        {
          "internalType": "string",
          "name": "",
          "type": "string"
        },
        {
          "internalType": "uint256",
          "name": "",
          "type": "uint256"
        }
      ],
      "stateMutability": "view",
      "type": "function"
    },
    {
      "inputs": [
        {
          "internalType": "address",
          "name": "user",
          "type": "address"
        },
        {
          "internalType": "address",
          "name": "groupAddress",
          "type": "address"
        }
      ],
      "name": "isMemberOfGroup",
      "outputs": [
        {
          "internalType": "bool",
          "name": "",
          "type": "bool"
        }
      ],
      "stateMutability": "view",
      "type": "function"
    },
    {
      "inputs": [
        {
          "internalType": "address",
          "name": "groupAddress",
          "type": "address"
        }
      ],
      "name": "joinGroup",
      "outputs": [],
      "stateMutability": "nonpayable",
      "type": "function"
    },
    {
      "inputs": [
        {
          "internalType": "uint256",
          "name": "nonce",
          "type": "uint256"
        },
        {
          "internalType": "bytes",
          "name": "signature",
          "type": "bytes"
        },
        {
          "internalType": "address",
          "name": "destination",
          "type": "address"
        },
        {
          "internalType": "uint256",
          "name": "value",
          "type": "uint256"
        },
        {
          "internalType": "bytes",
          "name": "data",
          "type": "bytes"
        }
      ],
      "name": "metaTransaction",
      "outputs": [],
      "stateMutability": "nonpayable",
      "type": "function"
    },
    {
      "inputs": [
        {
          "internalType": "address",
          "name": "",
          "type": "address"
        }
      ],
      "name": "nonces",
      "outputs": [
        {
          "internalType": "uint256",
          "name": "",
          "type": "uint256"
        }
      ],
      "stateMutability": "view",
      "type": "function"
    },
    {
      "inputs": [
        {
          "internalType": "string",
          "name": "keyword",
          "type": "string"
        }
      ],
      "name": "searchContent",
      "outputs": [
        {
          "components": [
            {
              "internalType": "uint256",
              "name": "id",
              "type": "uint256"
            },
            {
              "internalType": "address",
              "name": "creator",
              "type": "address"
            },
            {
              "internalType": "string",
              "name": "contentURI",
              "type": "string"
            },
            {
              "internalType": "string",
              "name": "description",
              "type": "string"
            },
            {
              "internalType": "uint256",
              "name": "timestamp",
              "type": "uint256"
            }
          ],
          "internalType": "struct SocialMedia.SearchResult[]",
          "name": "",
          "type": "tuple[]"
        }
      ],
      "stateMutability": "view",
      "type": "function"
    },
    {
      "inputs": [
        {
          "internalType": "address",
          "name": "user",
          "type": "address"
        },
        {
          "internalType": "enum SocialMedia.Role",
          "name": "role",
          "type": "uint8"
        }
      ],
      "name": "setUserRole",
      "outputs": [],
      "stateMutability": "nonpayable",
      "type": "function"
    },
    {
      "inputs": [
        {
          "internalType": "address",
          "name": "",
          "type": "address"
        }
      ],
      "name": "userRoles",
      "outputs": [
        {
          "internalType": "enum SocialMedia.Role",
          "name": "",
          "type": "uint8"
        }
      ],
      "stateMutability": "view",
      "type": "function"
    }
  ],
  "bytecode": "0x608060405234801561001057600080fd5b5033600260006101000a81548173ffffffffffffffffffffffffffffffffffffffff021916908373ffffffffffffffffffffffffffffffffffffffff16021790555060018060003373ffffffffffffffffffffffffffffffffffffffff1673ffffffffffffffffffffffffffffffffffffffff16815260200190815260200160002060006101000a81548160ff021916908360018111156100da577f4e487b7100000000000000000000000000000000000000000000000000000000600052602160045260246000fd5b0217905550612849806100ee6000396000f3fe608060405234801561001057600080fd5b50600436106101005760003560e01c8063baa0b80611610097578063dc2ddcae11610066578063dc2ddcae146102ec578063ebc1309614610308578063f851a44014610324578063fed216cb1461034257610100565b8063baa0b8061461024d578063c9601a1514610282578063cc459696146102b2578063d80c6977146102d057610100565b80637ecebe00116100d35780637ecebe00146101b557806392f41dac146101e55780639a824c4f14610215578063a3f5fafd1461023157610100565b806303a69611146101055780630b7ad54c1461012157806323edf6971461015557806374d5e10014610185575b600080fd5b61011f600480360381019061011a919061194e565b61035e565b005b61013b60048036038101906101369190611a37565b6104f0565b60405161014c95949392919061230b565b60405180910390f35b61016f600480360381019061016a9190611a37565b610670565b60405161017c919061211e565b60405180910390f35b61019f600480360381019061019a91906118e9565b610874565b6040516101ac91906121c2565b60405180910390f35b6101cf60048036038101906101ca91906118e9565b610894565b6040516101dc919061229d565b60405180910390f35b6101ff60048036038101906101fa919061198a565b6108ac565b60405161020c9190612140565b60405180910390f35b61022f600480360381019061022a91906118e9565b610bca565b005b61024b600480360381019061024691906119cb565b610bcd565b005b61026760048036038101906102629190611a37565b610dcb565b6040516102799695949392919061236c565b60405180910390f35b61029c60048036038101906102979190611912565b610f37565b6040516102a99190612162565b60405180910390f35b6102ba610f3f565b6040516102c7919061229d565b60405180910390f35b6102ea60048036038101906102e59190611b07565b610f45565b005b6103066004803603810190610301919061198a565b611009565b005b610322600480360381019061031d9190611a60565b61110d565b005b61032c611366565b6040516103399190612103565b60405180910390f35b61035c60048036038101906103579190611a37565b61138c565b005b6001806001811115610399577f4e487b7100000000000000000000000000000000000000000000000000000000600052602160045260246000fd5b600160003373ffffffffffffffffffffffffffffffffffffffff1673ffffffffffffffffffffffffffffffffffffffff16815260200190815260200160002060009054906101000a900460ff16600181111561041e577f4e487b7100000000000000000000000000000000000000000000000000000000600052602160045260246000fd5b1461045e576040517f08c379a00000000000000000000000000000000000000000000000000000000081526004016104559061227d565b60405180910390fd5b81600160008573ffffffffffffffffffffffffffffffffffffffff1673ffffffffffffffffffffffffffffffffffffffff16815260200190815260200160002060006101000a81548160ff021916908360018111156104e6577f4e487b7100000000000000000000000000000000000000000000000000000000600052602160045260246000fd5b0217905550505050565b600080606080600080600080888152602001908152602001600020905080600001548160010160009054906101000a900473ffffffffffffffffffffffffffffffffffffffff16826002018360030184600401548280546105509061263e565b80601f016020809104026020016040519081016040528092919081815260200182805461057c9061263e565b80156105c95780601f1061059e576101008083540402835291602001916105c9565b820191906000526020600020905b8154815290600101906020018083116105ac57829003601f168201915b505050505092508180546105dc9061263e565b80601f01602080910402602001604051908101604052809291908181526020018280546106089061263e565b80156106555780601f1061062a57610100808354040283529160200191610655565b820191906000526020600020905b81548152906001019060200180831161063857829003601f168201915b50505050509150955095509550955095505091939590929450565b60606003548211156106b7576040517f08c379a00000000000000000000000000000000000000000000000000000000081526004016106ae9061223d565b60405180910390fd5b60008060008481526020019081526020016000206006015467ffffffffffffffff81111561070e577f4e487b7100000000000000000000000000000000000000000000000000000000600052604160045260246000fd5b60405190808252806020026020018201604052801561074157816020015b606081526020019060019003908161072c5790505b50905060005b6000808581526020019081526020016000206006015481101561086a57600080858152602001908152602001600020600501600082815260200190815260200160002080546107959061263e565b80601f01602080910402602001604051908101604052809291908181526020018280546107c19061263e565b801561080e5780601f106107e35761010080835404028352916020019161080e565b820191906000526020600020905b8154815290600101906020018083116107f157829003601f168201915b505050505082828151811061084c577f4e487b7100000000000000000000000000000000000000000000000000000000600052603260045260246000fd5b6020026020010181905250808061086290612670565b915050610747565b5080915050919050565b60016020528060005260406000206000915054906101000a900460ff1681565b60046020528060005260406000206000915090505481565b6060600060035467ffffffffffffffff8111156108f2577f4e487b7100000000000000000000000000000000000000000000000000000000600052604160045260246000fd5b60405190808252806020026020018201604052801561092b57816020015b6109186116b2565b8152602001906001900390816109105790505b509050600080600190505b6003548111610bbf57600080600083815260200190815260200160002090508560405160200161096691906120d5565b604051602081830303815290604052805190602001208160030160405160200161099091906120ec565b604051602081830303815290604052805190602001201415610bab576109b46116b2565b81600001548160000181815250508160010160009054906101000a900473ffffffffffffffffffffffffffffffffffffffff16816020019073ffffffffffffffffffffffffffffffffffffffff16908173ffffffffffffffffffffffffffffffffffffffff1681525050816002018054610a2d9061263e565b80601f0160208091040260200160405190810160405280929190818152602001828054610a599061263e565b8015610aa65780601f10610a7b57610100808354040283529160200191610aa6565b820191906000526020600020905b815481529060010190602001808311610a8957829003601f168201915b50505050508160400181905250816003018054610ac29061263e565b80601f0160208091040260200160405190810160405280929190818152602001828054610aee9061263e565b8015610b3b5780601f10610b1057610100808354040283529160200191610b3b565b820191906000526020600020905b815481529060010190602001808311610b1e57829003601f168201915b50505050508160600181905250816004015481608001818152505080858581518110610b90577f4e487b7100000000000000000000000000000000000000000000000000000000600052603260045260246000fd5b60200260200101819052508380610ba690612670565b945050505b508080610bb790612670565b915050610936565b508192505050919050565b50565b6000806001811115610c08577f4e487b7100000000000000000000000000000000000000000000000000000000600052602160045260246000fd5b600160003373ffffffffffffffffffffffffffffffffffffffff1673ffffffffffffffffffffffffffffffffffffffff16815260200190815260200160002060009054906101000a900460ff166001811115610c8d577f4e487b7100000000000000000000000000000000000000000000000000000000600052602160045260246000fd5b14610ccd576040517f08c379a0000000000000000000000000000000000000000000000000000000008152600401610cc49061227d565b60405180910390fd5b60036000815480929190610ce090612670565b91905055506000806000600354815260200190815260200160002090506003548160000181905550338160010160006101000a81548173ffffffffffffffffffffffffffffffffffffffff021916908373ffffffffffffffffffffffffffffffffffffffff16021790555083816002019080519060200190610d639291906116f7565b5082816003019080519060200190610d7c9291906116f7565b504281600401819055507f4e5bf6cf99713bfd521b5b085ede7723cb9ccb592e6160a749e842f0ed907216600354338686604051610dbd94939291906122b8565b60405180910390a150505050565b60006020528060005260406000206000915090508060000154908060010160009054906101000a900473ffffffffffffffffffffffffffffffffffffffff1690806002018054610e1a9061263e565b80601f0160208091040260200160405190810160405280929190818152602001828054610e469061263e565b8015610e935780601f10610e6857610100808354040283529160200191610e93565b820191906000526020600020905b815481529060010190602001808311610e7657829003601f168201915b505050505090806003018054610ea89061263e565b80601f0160208091040260200160405190810160405280929190818152602001828054610ed49061263e565b8015610f215780601f10610ef657610100808354040283529160200191610f21565b820191906000526020600020905b815481529060010190602001808311610f0457829003601f168201915b5050505050908060040154908060060154905086565b600092915050565b60035481565b600354821115610f8a576040517f08c379a0000000000000000000000000000000000000000000000000000000008152600401610f819061223d565b60405180910390fd5b8060008084815260200190815260200160002060050160008060008681526020019081526020016000206006015481526020019081526020016000209080519060200190610fd99291906116f7565b50600080838152602001908152602001600020600601600081548092919061100090612670565b91905055505050565b6000806001811115611044577f4e487b7100000000000000000000000000000000000000000000000000000000600052602160045260246000fd5b600160003373ffffffffffffffffffffffffffffffffffffffff1673ffffffffffffffffffffffffffffffffffffffff16815260200190815260200160002060009054906101000a900460ff1660018111156110c9577f4e487b7100000000000000000000000000000000000000000000000000000000600052602160045260246000fd5b14611109576040517f08c379a00000000000000000000000000000000000000000000000000000000081526004016111009061227d565b60405180910390fd5b5050565b600460003373ffffffffffffffffffffffffffffffffffffffff1673ffffffffffffffffffffffffffffffffffffffff16815260200190815260200160002054851461118e576040517f08c379a0000000000000000000000000000000000000000000000000000000008152600401611185906121dd565b60405180910390fd5b600460003373ffffffffffffffffffffffffffffffffffffffff1673ffffffffffffffffffffffffffffffffffffffff16815260200190815260200160002060008154809291906111de90612670565b9190505550600033868585856040516020016111fe959493929190612063565b604051602081830303815290604052805190602001209050600260009054906101000a900473ffffffffffffffffffffffffffffffffffffffff1673ffffffffffffffffffffffffffffffffffffffff1661125982876115df565b73ffffffffffffffffffffffffffffffffffffffff16146112af576040517f08c379a00000000000000000000000000000000000000000000000000000000081526004016112a69061225d565b60405180910390fd5b60008473ffffffffffffffffffffffffffffffffffffffff1684846040516112d791906120be565b60006040518083038185875af1925050503d8060008114611314576040519150601f19603f3d011682016040523d82523d6000602084013e611319565b606091505b505090508061135d576040517f08c379a0000000000000000000000000000000000000000000000000000000008152600401611354906121fd565b60405180910390fd5b50505050505050565b600260009054906101000a900473ffffffffffffffffffffffffffffffffffffffff1681565b60018060018111156113c7577f4e487b7100000000000000000000000000000000000000000000000000000000600052602160045260246000fd5b600160003373ffffffffffffffffffffffffffffffffffffffff1673ffffffffffffffffffffffffffffffffffffffff16815260200190815260200160002060009054906101000a900460ff16600181111561144c577f4e487b7100000000000000000000000000000000000000000000000000000000600052602160045260246000fd5b1461148c576040517f08c379a00000000000000000000000000000000000000000000000000000000081526004016114839061227d565b60405180910390fd5b3373ffffffffffffffffffffffffffffffffffffffff1660008084815260200190815260200160002060010160009054906101000a900473ffffffffffffffffffffffffffffffffffffffff1673ffffffffffffffffffffffffffffffffffffffff161415611530576040517f08c379a00000000000000000000000000000000000000000000000000000000081526004016115279061221d565b60405180910390fd5b6000808381526020019081526020016000206000808201600090556001820160006101000a81549073ffffffffffffffffffffffffffffffffffffffff0219169055600282016000611582919061177d565b600382016000611592919061177d565b6004820160009055600682016000905550507fbdc5f307127ee49be7848b431e1fe06bfcd681e3a7ee8b050febfc95c48d973c826040516115d3919061229d565b60405180910390a15050565b60008060008060418551146115fa57600093505050506116ac565b602085015192506040850151915060ff6041860151169050601b8160ff16101561162e57601b8161162b9190612541565b90505b601b8160ff16141580156116465750601c8160ff1614155b1561165757600093505050506116ac565b6001868285856040516000815260200160405260405161167a949392919061217d565b6020604051602081039080840390855afa15801561169c573d6000803e3d6000fd5b5050506020604051035193505050505b92915050565b6040518060a0016040528060008152602001600073ffffffffffffffffffffffffffffffffffffffff1681526020016060815260200160608152602001600081525090565b8280546117039061263e565b90600052602060002090601f016020900481019282611725576000855561176c565b82601f1061173e57805160ff191683800117855561176c565b8280016001018555821561176c579182015b8281111561176b578251825591602001919060010190611750565b5b50905061177991906117bd565b5090565b5080546117899061263e565b6000825580601f1061179b57506117ba565b601f0160209004906000526020600020908101906117b991906117bd565b5b50565b5b808211156117d65760008160009055506001016117be565b5090565b60006117ed6117e88461240c565b6123db565b90508281526020810184848401111561180557600080fd5b6118108482856125fc565b509392505050565b600061182b6118268461243c565b6123db565b90508281526020810184848401111561184357600080fd5b61184e8482856125fc565b509392505050565b600081359050611865816127d5565b92915050565b600082601f83011261187c57600080fd5b813561188c8482602086016117da565b91505092915050565b6000813590506118a4816127ec565b92915050565b600082601f8301126118bb57600080fd5b81356118cb848260208601611818565b91505092915050565b6000813590506118e3816127fc565b92915050565b6000602082840312156118fb57600080fd5b600061190984828501611856565b91505092915050565b6000806040838503121561192557600080fd5b600061193385828601611856565b925050602061194485828601611856565b9150509250929050565b6000806040838503121561196157600080fd5b600061196f85828601611856565b925050602061198085828601611895565b9150509250929050565b60006020828403121561199c57600080fd5b600082013567ffffffffffffffff8111156119b657600080fd5b6119c2848285016118aa565b91505092915050565b600080604083850312156119de57600080fd5b600083013567ffffffffffffffff8111156119f857600080fd5b611a04858286016118aa565b925050602083013567ffffffffffffffff811115611a2157600080fd5b611a2d858286016118aa565b9150509250929050565b600060208284031215611a4957600080fd5b6000611a57848285016118d4565b91505092915050565b600080600080600060a08688031215611a7857600080fd5b6000611a86888289016118d4565b955050602086013567ffffffffffffffff811115611aa357600080fd5b611aaf8882890161186b565b9450506040611ac088828901611856565b9350506060611ad1888289016118d4565b925050608086013567ffffffffffffffff811115611aee57600080fd5b611afa8882890161186b565b9150509295509295909350565b60008060408385031215611b1a57600080fd5b6000611b28858286016118d4565b925050602083013567ffffffffffffffff811115611b4557600080fd5b611b51858286016118aa565b9150509250929050565b6000611b678383611d00565b905092915050565b6000611b7b8383611fa2565b905092915050565b611b8c81612578565b82525050565b611b9b81612578565b82525050565b611bb2611bad82612578565b6126b9565b82525050565b6000611bc3826124a1565b611bcd81856124e7565b935083602082028501611bdf8561246c565b8060005b85811015611c1b5784840389528151611bfc8582611b5b565b9450611c07836124cd565b925060208a01995050600181019050611be3565b50829750879550505050505092915050565b6000611c38826124ac565b611c4281856124f8565b935083602082028501611c548561247c565b8060005b85811015611c905784840389528151611c718582611b6f565b9450611c7c836124da565b925060208a01995050600181019050611c58565b50829750879550505050505092915050565b611cab8161258a565b82525050565b611cba81612596565b82525050565b6000611ccb826124b7565b611cd58185612509565b9350611ce581856020860161260b565b80840191505092915050565b611cfa816125ea565b82525050565b6000611d0b826124c2565b611d158185612514565b9350611d2581856020860161260b565b611d2e816127a3565b840191505092915050565b6000611d44826124c2565b611d4e8185612525565b9350611d5e81856020860161260b565b611d67816127a3565b840191505092915050565b6000611d7d826124c2565b611d878185612536565b9350611d9781856020860161260b565b80840191505092915050565b60008154611db08161263e565b611dba8186612536565b94506001821660008114611dd55760018114611de657611e19565b60ff19831686528186019350611e19565b611def8561248c565b60005b83811015611e1157815481890152600182019150602081019050611df2565b838801955050505b50505092915050565b6000611e2f600d83612525565b91507f496e76616c6964206e6f6e6365000000000000000000000000000000000000006000830152602082019050919050565b6000611e6f601c83612525565b91507f5472616e73616374696f6e20657865637574696f6e206661696c6564000000006000830152602082019050919050565b6000611eaf601983612525565b91507f43616e6e6f742064656c657465206f776e20636f6e74656e74000000000000006000830152602082019050919050565b6000611eef601283612525565b91507f496e76616c696420636f6e74656e7420494400000000000000000000000000006000830152602082019050919050565b6000611f2f601d83612525565b91507f5369676e617475726520766572696669636174696f6e206661696c65640000006000830152602082019050919050565b6000611f6f601383612525565b91507f556e617574686f72697a656420616363657373000000000000000000000000006000830152602082019050919050565b600060a083016000830151611fba600086018261201f565b506020830151611fcd6020860182611b83565b5060408301518482036040860152611fe58282611d00565b91505060608301518482036060860152611fff8282611d00565b9150506080830151612014608086018261201f565b508091505092915050565b612028816125d3565b82525050565b612037816125d3565b82525050565b61204e612049826125d3565b6126dd565b82525050565b61205d816125dd565b82525050565b600061206f8288611ba1565b60148201915061207f828761203d565b60208201915061208f8286611ba1565b60148201915061209f828561203d565b6020820191506120af8284611cc0565b91508190509695505050505050565b60006120ca8284611cc0565b915081905092915050565b60006120e18284611d72565b915081905092915050565b60006120f88284611da3565b915081905092915050565b60006020820190506121186000830184611b92565b92915050565b600060208201905081810360008301526121388184611bb8565b905092915050565b6000602082019050818103600083015261215a8184611c2d565b905092915050565b60006020820190506121776000830184611ca2565b92915050565b60006080820190506121926000830187611cb1565b61219f6020830186612054565b6121ac6040830185611cb1565b6121b96060830184611cb1565b95945050505050565b60006020820190506121d76000830184611cf1565b92915050565b600060208201905081810360008301526121f681611e22565b9050919050565b6000602082019050818103600083015261221681611e62565b9050919050565b6000602082019050818103600083015261223681611ea2565b9050919050565b6000602082019050818103600083015261225681611ee2565b9050919050565b6000602082019050818103600083015261227681611f22565b9050919050565b6000602082019050818103600083015261229681611f62565b9050919050565b60006020820190506122b2600083018461202e565b92915050565b60006080820190506122cd600083018761202e565b6122da6020830186611b92565b81810360408301526122ec8185611d39565b905081810360608301526123008184611d39565b905095945050505050565b600060a082019050612320600083018861202e565b61232d6020830187611b92565b818103604083015261233f8186611d39565b905081810360608301526123538185611d39565b9050612362608083018461202e565b9695505050505050565b600060c082019050612381600083018961202e565b61238e6020830188611b92565b81810360408301526123a08187611d39565b905081810360608301526123b48186611d39565b90506123c3608083018561202e565b6123d060a083018461202e565b979650505050505050565b6000604051905081810181811067ffffffffffffffff8211171561240257612401612774565b5b8060405250919050565b600067ffffffffffffffff82111561242757612426612774565b5b601f19601f8301169050602081019050919050565b600067ffffffffffffffff82111561245757612456612774565b5b601f19601f8301169050602081019050919050565b6000819050602082019050919050565b6000819050602082019050919050565b60008190508160005260206000209050919050565b600081519050919050565b600081519050919050565b600081519050919050565b600081519050919050565b6000602082019050919050565b6000602082019050919050565b600082825260208201905092915050565b600082825260208201905092915050565b600081905092915050565b600082825260208201905092915050565b600082825260208201905092915050565b600081905092915050565b600061254c826125dd565b9150612557836125dd565b92508260ff0382111561256d5761256c6126e7565b5b828201905092915050565b6000612583826125b3565b9050919050565b60008115159050919050565b6000819050919050565b60008190506125ae826127c1565b919050565b600073ffffffffffffffffffffffffffffffffffffffff82169050919050565b6000819050919050565b600060ff82169050919050565b60006125f5826125a0565b9050919050565b82818337600083830152505050565b60005b8381101561262957808201518184015260208101905061260e565b83811115612638576000848401525b50505050565b6000600282049050600182168061265657607f821691505b6020821081141561266a57612669612745565b5b50919050565b600061267b826125d3565b91507fffffffffffffffffffffffffffffffffffffffffffffffffffffffffffffffff8214156126ae576126ad6126e7565b5b600182019050919050565b60006126c4826126cb565b9050919050565b60006126d6826127b4565b9050919050565b6000819050919050565b7f4e487b7100000000000000000000000000000000000000000000000000000000600052601160045260246000fd5b7f4e487b7100000000000000000000000000000000000000000000000000000000600052602160045260246000fd5b7f4e487b7100000000000000000000000000000000000000000000000000000000600052602260045260246000fd5b7f4e487b7100000000000000000000000000000000000000000000000000000000600052604160045260246000fd5b6000601f19601f8301169050919050565b60008160601b9050919050565b600281106127d2576127d1612716565b5b50565b6127de81612578565b81146127e957600080fd5b50565b600281106127f957600080fd5b50565b612805816125d3565b811461281057600080fd5b5056fea264697066735822122058c5a0b1db8ba079b83d05ff894538f3b1ecc5035d09b90f461cbbf8815970ce64736f6c63430008000033",
  "linkReferences": {},
  "deployedLinkReferences": {}
}